1000000000000191              EMPRESA MATRIZ PARA TESTES         123                           DF06158746982014080120140811220
11OUTRO ENDERECO                    00001                      123            00000123                            006158746985
5000000000000191              20140802DF55001000022    P000000000110000000000000000000000000000000000000000000000000000000000N
5000000000000191              20140802DF55001000009    P000000000000000000000000000000000000000000000000000000000000000000000N
5000000000000191              20140802DF55001000010    P000000000000000000000000000000000000000000000000000000000000000000000N
5000000000000191              20140802DF55001000011    P000000000000000000000000000000000000000000000000000000000000000000000N
5000000000000191              20140802DF55001000012    P000000000000000000000000000000000000000000000000000000000000000000000N
5000000000000191              20140802DF55001000013    P000000000000000000000000000000000000000000000000000000000000000000000N
5000000000000191              20140802DF55001000014    P000000000000000000000000000000000000000000000000000000000000000000000N
5000000000000191              20140802DF55001000015    P000000000000000000000000000000000000000000000000000000000000000000000N
5000000000000191              20140802DF55001000016    P000000000000000000000000000000000000000000000000000000000000000000000N
5000000000000191              20140802DF55001000017    P000000000120000000000000000000000000000000000000000000000000000000000N
5000000000000191              20140802DF55001000018    P000000000000000000000000000000000000000000000000000000000000000000000N
5000000000000191              20140802DF55001000019    P000000000000000000000000000000000000000000000000000000000000000000000N
5000000000000191              20140802DF55001000020    P000000000180000000000000000000000000000000000000000000000000000000000N
5000000000000191              20140802DF55001000021    P000000000180000000000000000000000000000000000000000000000000000000000N
5000000000000191              20140802DF55001000022    P000000000000000000000000000000000000000000000000000000000000000000000N
5000000000000191              20140802DF55001000023    P000000000490000000000000000000000000000000000000000000000000000000000N
5000000000000191              20140802DF55001000024    P000000000000000000000000000000000000000000000000000000000000000000000N
5000000000000191              20140802DF55001000025    P000000000000000000000000000000000000000000000000000000000000000000000N
5000000000000191              20140802DF55001000026    P000000000000000000000000000000000000000000000000000000000000000000000N
5000000000000191              20140802DF55001000027    P000000000000000000000000000000000000000000000000000000000000000000000N
5000000000000191              20140802DF55001000028    P000000000000000000000000000000000000000000000000000000000000000000000N
5000000000000191              20140802DF55001000029    P000000000000000000000000000000000000000000000000000000000000000000000N
5000000000000191              20140802DF55001000030    P000000000000000000000000000000000000000000000000000000000000000000000N
5000000000000191              20140802DF55001000031    P000000003340000000000000000000000000000000000000000000000000000000000N
5000000000000191              20140810DF55001000032    P000000000000000000000000000000000000000000000000000000000000000000000N
5000000000000191              20140810DF55001000033    P000000000000000000000000000000000000000000000000000000000000000000000N
5000000000000191              20140810DF55001000034    P000000000000000000000000000000000000000000000000000000000000000000000N
5000000000000191              20140810DF55001000035    P000000000060000000000000000000000000000000000000000000000000000000000N
5000000000000191              20140810DF55001000036    P000000000000000000000000000000000000000000000000000000000000000000000N
5000000000000191              20140810DF55001000037    P000000000000000000000000000000000000000000000000000000000000000000000N
5000000000000191              20140810DF55001000038    P000000000060000000000000000000000000000000000000000000000000000000000N
5000000000000191              20140810DF55001000039    P000000000000000000000000000000000000000000000000000000000000000000000N
5000000000000191              20140810DF55001000040    P000000000000000000000000000000000000000000000000000000000000000000000N
5000000000000191              20140810DF55001000041    P000000000660000000000000000000000000000000000000000000000000000000000N
5000000000000191              20140810DF55001000042    P000000000000000000000000000000000000000000000000000000000000000000000N
5000000000000191              20140810DF55001000043    P000000000060000000000000000000000000000000000000000000000000000000000N
5000000000000191              20140810DF55001000044    P000000000000000000000000000000000000000000000000000000000000000000000N
5000000000000191              20140810DF55001000045    P000000000660000000000000000000000000000000000000000000000000000000000N
5000000000000191              20140810DF55001000046    P000000000000000000000000000000000000000000000000000000000000000000000N
5000000000000191              20140810DF55001000047    P000000000660000000000000000000000000000000000000000000000000000000000N
5000000000000191              20140810DF55001000048    P000000000000000000000000000000000000000000000000000000000000000000000N
5000000000000191              20140810DF55001000049    P000000000660000000000000000000000000000000000000000000000000000000000N
5000000000000191              20140810DF55001000050    P000000000060000000000000000000000000000000000000000000000000000000000N
5000000000000191              20140810DF55001000051    P000000000000000000000000000000000000000000000000000000000000000000000N
5000000000000191              20140810DF55001000052    P000000000000000000000000000000000000000000000000000000000000000000000N
5000000000000191              20140810DF55001000053    P000000000000000000000000000000000000000000000000000000000000000000000N
5000000000000191              20140810DF55001000054    P000000000000000000000000000000000000000000000000000000000000000000000N
5000000000000191              20140810DF55001000055    P000000000000000000000000000000000000000000000000000000000000000000000N
5000000000000191              20140810DF55001000056    P000000000000000000000000000000000000000000000000000000000000000000000N
5000000000000191              20140810DF55001000057    P000000000660000000000000000000000000000000000000000000000000000000000N
5000000000000191              20140810DF55001000058    P000000000060000000000000000000000000000000000000000000000000000000000N
540000000000019155001000022510100 0025556667       000000010000000000005000000000000000000000000000000000000000000000000001700
540000000000019155001000022510100 0017896019606226 000000010000000000006000000000000000000000000000000000000000000000000001700
540000000000019155001000022510100 0025556667       000000010000000000005000000000000000000000000000000000000000000000000001700
540000000000019155001000017510101 0017896019606226 000000020000000000012000000000000000000000000000000000000000000000000001700
540000000000019155001000017510101 0017896019606226 000000020000000000012000000000000000000000000000000000000000000000000001700
540000000000019155001000017510101 0017896019606226 000000020000000000012000000000000000000000000000000000000000000000000001700
540000000000019155001000017510101 0017896019606226 000000020000000000012000000000000000000000000000000000000000000000000001700
540000000000019155001000017510101 0017896019606226 000000020000000000012000000000000000000000000000000000000000000000000001700
540000000000019155001000017510101 0017896019606226 000000020000000000012000000000000000000000000000000000000000000000000001700
540000000000019155001000017510101 0017896019606226 000000020000000000012000000000000000000000000000000000000000000000000001700
540000000000019155001000017510101 0017896019606226 000000020000000000012000000000000000000000000000000000000000000000000001700
540000000000019155001000017510101 0017896019606226 000000020000000000012000000000000000000000000000000000000000000000000001700
540000000000019155001000017510101 0017896019606226 000000020000000000012000000000000000000000000000000000000000000000000001700
540000000000019155001000017510101 0017896019606226 000000020000000000012000000000000000000000000000000000000000000000000001700
540000000000019155001000017510101 0017896019606226 000000020000000000012000000000000000000000000000000000000000000000000001700
540000000000019155001000017510101 0017896019606226 000000020000000000012000000000000000000000000000000000000000000000000001700
540000000000019155001000017510101 0017896019606226 000000020000000000012000000000000000000000000000000000000000000000000001700
540000000000019155001000017510101 0017896019606226 000000020000000000012000000000000000000000000000000000000000000000000001700
540000000000019155001000017510101 0017896019606226 000000020000000000012000000000000000000000000000000000000000000000000001700
540000000000019155001000017510100 0017896019606226 000000020000000000012000000000000000000000000000000000000000000000000001700
540000000000019155001000017510100 0017896019606226 000000020000000000012000000000000000000000000000000000000000000000000001700
540000000000019155001000017510100 0017896019606226 000000020000000000012000000000000000000000000000000000000000000000000001700
540000000000019155001000017510100 0017896019606226 000000020000000000012000000000000000000000000000000000000000000000000001700
540000000000019155001000017510100 0017896019606226 000000020000000000012000000000000000000000000000000000000000000000000001700
540000000000019155001000017510100 0017896019606226 000000020000000000012000000000000000000000000000000000000000000000000001700
540000000000019155001000017510100 0017896019606226 000000020000000000012000000000000000000000000000000000000000000000000001700
540000000000019155001000017510100 0017896019606226 000000020000000000012000000000000000000000000000000000000000000000000001700
540000000000019155001000017510100 0017896019606226 000000020000000000012000000000000000000000000000000000000000000000000001700
540000000000019155001000017510100 0017896019606226 000000020000000000012000000000000000000000000000000000000000000000000001700
540000000000019155001000017510100 0017896019606226 000000020000000000012000000000000000000000000000000000000000000000000001700
540000000000019155001000017510100 0017896019606226 000000020000000000012000000000000000000000000000000000000000000000000001700
540000000000019155001000017510100 0017896019606226 000000020000000000012000000000000000000000000000000000000000000000000001700
540000000000019155001000017510100 0017896019606226 000000020000000000012000000000000000000000000000000000000000000000000001700
540000000000019155001000017510100 0017896019606226 000000020000000000012000000000000000000000000000000000000000000000000001700
540000000000019155001000017510100 0017896019606226 000000020000000000012000000000000000000000000000000000000000000000000001700
540000000000019155001000017510101 0017896019606226 000000020000000000012000000000000000000000000000000000000000000000000001700
540000000000019155001000017510101 0017896019606226 000000020000000000012000000000000000000000000000000000000000000000000001700
540000000000019155001000017510101 0017896019606226 000000020000000000012000000000000000000000000000000000000000000000000001700
540000000000019155001000017510101 0017896019606226 000000020000000000012000000000000000000000000000000000000000000000000001700
540000000000019155001000017510101 0017896019606226 000000020000000000012000000000000000000000000000000000000000000000000001700
540000000000019155001000017510101 0017896019606226 000000020000000000012000000000000000000000000000000000000000000000000001700
540000000000019155001000017510101 0017896019606226 000000020000000000012000000000000000000000000000000000000000000000000001700
540000000000019155001000017510101 0017896019606226 000000020000000000012000000000000000000000000000000000000000000000000001700
540000000000019155001000017510101 0017896019606226 000000020000000000012000000000000000000000000000000000000000000000000001700
540000000000019155001000017510101 0017896019606226 000000020000000000012000000000000000000000000000000000000000000000000001700
540000000000019155001000017510101 0017896019606226 000000020000000000012000000000000000000000000000000000000000000000000001700
540000000000019155001000017510101 0017896019606226 000000020000000000012000000000000000000000000000000000000000000000000001700
540000000000019155001000017510101 0017896019606226 000000020000000000012000000000000000000000000000000000000000000000000001700
540000000000019155001000017510101 0017896019606226 000000020000000000012000000000000000000000000000000000000000000000000001700
540000000000019155001000017510101 0017896019606226 000000020000000000012000000000000000000000000000000000000000000000000001700
540000000000019155001000017510101 0017896019606226 000000020000000000012000000000000000000000000000000000000000000000000001700
540000000000019155001000017510100 0017896019606226 000000020000000000012000000000000000000000000000000000000000000000000001700
540000000000019155001000017510100 0017896019606226 000000020000000000012000000000000000000000000000000000000000000000000001700
540000000000019155001000017510100 0017896019606226 000000020000000000012000000000000000000000000000000000000000000000000001700
540000000000019155001000017510100 0017896019606226 000000020000000000012000000000000000000000000000000000000000000000000001700
540000000000019155001000017510100 0017896019606226 000000020000000000012000000000000000000000000000000000000000000000000001700
540000000000019155001000017510100 0017896019606226 000000020000000000012000000000000000000000000000000000000000000000000001700
540000000000019155001000017510100 0017896019606226 000000020000000000012000000000000000000000000000000000000000000000000001700
540000000000019155001000017510100 0017896019606226 000000020000000000012000000000000000000000000000000000000000000000000001700
540000000000019155001000017510100 0017896019606226 000000020000000000012000000000000000000000000000000000000000000000000001700
540000000000019155001000017510100 0017896019606226 000000020000000000012000000000000000000000000000000000000000000000000001700
540000000000019155001000017510100 0017896019606226 000000020000000000012000000000000000000000000000000000000000000000000001700
540000000000019155001000017510100 0017896019606226 000000020000000000012000000000000000000000000000000000000000000000000001700
540000000000019155001000017510100 0017896019606226 000000020000000000012000000000000000000000000000000000000000000000000001700
540000000000019155001000017510100 0017896019606226 000000020000000000012000000000000000000000000000000000000000000000000001700
540000000000019155001000017510100 0017896019606226 000000020000000000012000000000000000000000000000000000000000000000000001700
540000000000019155001000017510100 0017896019606226 000000020000000000012000000000000000000000000000000000000000000000000001700
540000000000019155001000020510100 0017896019606226 000000030000000000018000000000000000000000000000000000000000000000000001700
540000000000019155001000021510100 0017896019606226 000000030000000000018000000000000000000000000000000000000000000000000001700
540000000000019155001000023510100 0017896019606226 000000040000000000024000000000000000000000000000000000000000000000000001700
540000000000019155001000023510100 0025556667       000000050000000000025000000000000000000000000000000000000000000000000001700
540000000000019155001000031510100 0017896019606226 000000020000000000012000000000000000000000000000000000000000000000000001700
540000000000019155001000031510100 0027897975018016 000000050000000000300000000000000000000000000000000000000000000000000001700
540000000000019155001000031510100 00366666666666   000000040000000000022000000000000000000000000000000000000000000000000001700
540000000000019155001000035510100 0017896019606226 000000010000000000006000000000000000000000000000000000000000000000000001700
540000000000019155001000038510100 0017896019606226 000000010000000000006000000000000000000000000000000000000000000000000001700
540000000000019155001000041510100 0017896019606226 000000010000000000006000000000000000000000000000000000000000000000000001700
540000000000019155001000041510100 0027897975018016 000000010000000000060000000000000000000000000000000000000000000000000001700
540000000000019155001000043510100 0017896019606226 000000010000000000006000000000000000000000000000000000000000000000000001700
540000000000019155001000045510100 0017896019606226 000000010000000000006000000000000000000000000000000000000000000000000001700
540000000000019155001000045510100 0027897975018016 000000010000000000060000000000000000000000000000000000000000000000000001700
540000000000019155001000047510100 0017896019606226 000000010000000000006000000000000000000000000000000000000000000000000001700
540000000000019155001000047510100 0027897975018016 000000010000000000060000000000000000000000000000000000000000000000000001700
540000000000019155001000049510100 0017896019606226 000000010000000000006000000000000000000000000000000000000000000000000001700
540000000000019155001000049510100 0027897975018016 000000010000000000060000000000000000000000000000000000000000000000000001700
540000000000019155001000050510100 0017896019606226 000000010000000000006000000000000000000000000000000000000000000000000001700
540000000000019155001000057510100 0017896019606226 000000010000000000006000000000000000000000000000000000000000000000000001700
540000000000019155001000057510100 0027897975018016 000000010000000000060000000000000000000000000000000000000000000000000001700
540000000000019155001000058510100 0017896019606226 000000010000000000006000000000000000000000000000000000000000000000000001700
61                            2014080802D    00099900099900000000006000000000000000000000000000000000000000000000000000000000 
7520140801201408115556667       82121020555666                                               UN    000001700000000000000000000
75201408012014081166666666666   8212102066666666                                             UN    000001700000000000000000000
7520140801201408117896019606226 17049010PRODUTO 01 DO SUBGRUPO 01 DO GRUPO 01                UN    000001700000000000000000000
7520140801201408117897975018016 48234000PRODUTO 01 DO SUBGRUPO 02 DO GRUPO 01                UN    000001700000000000000000000
9000000000000191              5000000051540000008961000000017500000004                                                       2
9000000000000191              9900000149                                                                                     2
