P1107931180001780751990400114 ISENTO        T2TI.COM TECNOLOGIA DA INFORMACAO LTDA            
P2107931180001780001170000005 01 SERVICO TRIBUTADO A 5%                               ATS0000000000120000
P2107931180001780001180000002 SERVICO TRIBUTADO A 3%                                  ATS0000000000055800
P2107931180001780001190000009 01 PRODUTO TIBUTADO A 12%                               ATT1200000000012000
P2107931180001780001234567898 PRODUTO TRIBUTADO A 17%                                 ATT1700000000000580
P2107931180001780312011604499 02 PRODUTO TRIBUTADO A 7%                               ATT0700000000003500
P2107931180001780407011150500 PRODUTO TRIBUTADO A 25%                                 ATT2500000000002980
P2107931180001780507021132142 PRODUTO SUBSTITUICAO TRIBUTARI                          ATF0000000000003000
P2107931180001781             PRODUTO NAO TRIBUTADO                                   ATN0000000000055800
P2107931180001781234567894568 PRODUTO PARA DAV POR 350                                ATT1700000000035000
P2107931180001781603041234428 PRODUTO ISENTO                                          ATI0000000000012000
P2107931180001782106021651318 1                                                       ATS0000000000070000
P2107931180001782548798532156 PRODUTO DE PRODUCAO PROPRIA                             APT1700000000001000
P2107931180001782581473698888 PRODUTO PARA TESTE VALOR 20                             ATT1700000000002000
P2107931180001782608021532487 02 PRODUTO TIBUTADO A 12%                               ATT1200000000003000
P2107931180001783011010827133 01 PRODUTO TRIBUTADO A 7%                               ATT0700000000001000
P2107931180001785488654654665 PRODUTO PARA PRE VENDA POR 90                           ATT1700000000009000
P2107931180001785555554444564 PRODUTO PARA TESTE VALOR 150                            ATT1700000000015000
P2107931180001786465487987999 PRODUTO PARA TESTE VALOR 30                             ATT1700000000003000
P2107931180001788521479787998 PRODUTO PARA TESTE VALOR 500                            ATT1700000000050000
P2107931180001788797897998555 PRODUTO PARA TESTE VALOR 200                            ATT1700000000020000
P2107931180001788798546521325 PRODUTO PARA TESTE VALOR 50                             ATT1700000000004900
P2107931180001789876465431323 PRODUTO PARA TESTE VALOR 140                            ATT1500000000014000
P9107931180001780751990400114 000022
EAD4D7CFFE698A0BCA56A169E452AF307A67C394112172E6D3974178B93EA9957D19A0F5F9B92D82948F6DBEBF0DBAA51898114691AD5862B0C075F8C141D3EE11D9BEA1312A3F8997EE5D7EA24D4D7B4027A67ADAF627182FDE7DA9B9F467E5C263822FC1FB0BC9538E0846255E8471D64A0A886DA67D30D104BDFCEE72AD4E240