0000000011110793118000178000000000000T2TI TECNOLOGIA DA INFORMACAO LTDA                                                                                                                    0101201231032016150320160033
000000002211012012080401287355068800020000840001740EE1O                                                                                                    
000000003211012012120501287355068800020000840001740SS1O                                                                                                    
000000004211012012130701287355068800020000840001740EE2O                                                                                                    
000000005211012012180101287355068800020000840001740SS2O                                                                                                    
000000006212012012080701287355068800020000840001740EE1O                                                                                                    
000000007212012012120701287355068800020000840001740SS1O                                                                                                    
000000008212012012131001287355068800020000840001740EE2O                                                                                                    
000000009212012012180001287355068800020000840001740SS2Ifunci esqueceu de registrar                                                                         
000000010213012012080201287355068800020000840001740DE1Oerro no sistema                                                                                     
0000000109
