1000000000000191              EMPRESA MATRIZ PARA TESTES         CIDADE                        DF61300000002013010120131231220
11LOGRADOURO EMPRESA                00001                      BAIRRO         70000000                            006130000000
5000000000000191              20130625DF55001000001    P000000000000000000000000000000000000000000000000000000000000000000000N
60M20130101000000000000000000010012D00005900010700000300100000000002650800000000002196560                                     
60A201301010000000000000000000117  000000000000                                                                               
60A20130101000000000000000000015   000000000000                                                                               
60A20130101000000000000000000017   000000054000                                                                               
60A201301010000000000000000000110  000000000000                                                                               
60A201301010000000000000000000112  000000000000                                                                               
60A2013010100000000000000000001F   000000000000                                                                               
60A2013010100000000000000000001I   000000000000                                                                               
60A2013010100000000000000000001N   000000000000                                                                               
60A2013010100000000000000000001DESC000000000000                                                                               
60A2013010100000000000000000001CANC000000211080                                                                               
60M20130103000000000000000000010012D00010900020400000400100000000110549600000000013251520                                     
60A201301030000000000000000000117  000000000000                                                                               
60A20130103000000000000000000015   000010080000                                                                               
60A20130103000000000000000000017   000000229545                                                                               
60A201301030000000000000000000110  000000000000                                                                               
60A201301030000000000000000000112  000000012120                                                                               
60A2013010300000000000000000001F   000000003000                                                                               
60A2013010300000000000000000001I   000000000000                                                                               
60A2013010300000000000000000001N   000000055800                                                                               
60A2013010300000000000000000001DESC000000016335                                                                               
60A2013010300000000000000000001CANC000000658160                                                                               
60M20130105000000000000000000010012D00020500022400000500100000000009383400000000014189860                                     
60A201301050000000000000000000117  000000036160                                                                               
60A20130105000000000000000000015   000000500000                                                                               
60A20130105000000000000000000017   000000006500                                                                               
60A201301050000000000000000000110  000000000000                                                                               
60A201301050000000000000000000112  000000015000                                                                               
60A2013010500000000000000000001F   000000000000                                                                               
60A2013010500000000000000000001I   000000000000                                                                               
60A2013010500000000000000000001N   000000111600                                                                               
60A2013010500000000000000000001DESC000000000000                                                                               
60A2013010500000000000000000001CANC000000269080                                                                               
60M20130510000000000000000000010012D00047800047900002100100000000000002000000000016031475                                     
60A201305100000000000000000000117  000000000000                                                                               
60A20130510000000000000000000015   000000000000                                                                               
60A20130510000000000000000000017   000000000000                                                                               
60A201305100000000000000000000110  000000000000                                                                               
60A201305100000000000000000000112  000000000000                                                                               
60A2013051000000000000000000001F   000000000000                                                                               
60A2013051000000000000000000001I   000000000000                                                                               
60A2013051000000000000000000001N   000000000200                                                                               
60A2013051000000000000000000001DESC000000000000                                                                               
60A2013051000000000000000000001CANC000000000000                                                                               
9000000000000191              50000000016000000044                                                                           2
9000000000000191              9900000049                                                                                     2
