1000000000000191              EMPRESA MATRIZ PARA TESTES         CIDADE                        DF61300000002013010120131231220
11LOGRADOURO EMPRESA                00001                      BAIRRO         70000000                            006130000000
5000000000000191              20130625DF55001000001    P000000000000000000000000000000000000000000000000000000000000000000000N
9000000000000191              5000000001                                                                                     2
9000000000000191              9900000005                                                                                     2
